{
  "contractName": "Bank",
  "abi": [
    {
      "anonymous": false,
      "inputs": [
        {
          "indexed": true,
          "internalType": "address",
          "name": "accountOwner",
          "type": "address"
        },
        {
          "indexed": true,
          "internalType": "uint256",
          "name": "ammount",
          "type": "uint256"
        }
      ],
      "name": "Deposit",
      "type": "event"
    },
    {
      "anonymous": false,
      "inputs": [
        {
          "indexed": true,
          "internalType": "address",
          "name": "accountOwner",
          "type": "address"
        },
        {
          "indexed": true,
          "internalType": "uint256",
          "name": "ammount",
          "type": "uint256"
        }
      ],
      "name": "Withdraw",
      "type": "event"
    },
    {
      "constant": true,
      "inputs": [
        {
          "internalType": "address",
          "name": "",
          "type": "address"
        }
      ],
      "name": "_ethBalance",
      "outputs": [
        {
          "internalType": "uint256",
          "name": "",
          "type": "uint256"
        }
      ],
      "payable": false,
      "stateMutability": "view",
      "type": "function"
    },
    {
      "constant": false,
      "inputs": [],
      "name": "_deposit",
      "outputs": [],
      "payable": true,
      "stateMutability": "payable",
      "type": "function"
    },
    {
      "constant": false,
      "inputs": [
        {
          "internalType": "uint256",
          "name": "amount",
          "type": "uint256"
        }
      ],
      "name": "_withdraw",
      "outputs": [],
      "payable": false,
      "stateMutability": "nonpayable",
      "type": "function"
    }
  ],
  "bytecode": "0x608060405234801561001057600080fd5b5061043a806100206000396000f3fe6080604052600436106100345760003560e01c8063abb721ce14610039578063ac6a2b5d14610043578063f3080e471461007e575b600080fd5b6100416100e3565b005b34801561004f57600080fd5b5061007c6004803603602081101561006657600080fd5b810190808035906020019092919050505061017b565b005b34801561008a57600080fd5b506100cd600480360360208110156100a157600080fd5b81019080803573ffffffffffffffffffffffffffffffffffffffff16906020019092919050505061025b565b6040518082815260200191505060405180910390f35b610134346000803373ffffffffffffffffffffffffffffffffffffffff1673ffffffffffffffffffffffffffffffffffffffff1681526020019081526020016000205461027390919063ffffffff16565b50343373ffffffffffffffffffffffffffffffffffffffff167fe1fffcc4923d04b559f4d29a8bfc6cda04eb5b0d3c460751c2402c5c5cc9109c60405160405180910390a3565b6101cc816000803373ffffffffffffffffffffffffffffffffffffffff1673ffffffffffffffffffffffffffffffffffffffff168152602001908152602001600020546102fb90919063ffffffff16565b503373ffffffffffffffffffffffffffffffffffffffff166108fc829081150290604051600060405180830381858888f19350505050158015610213573d6000803e3d6000fd5b50803373ffffffffffffffffffffffffffffffffffffffff167f884edad9ce6fa2440d8a54cc123490eb96d2768479d49ff9c7366125a942436460405160405180910390a350565b60006020528060005260406000206000915090505481565b6000808284019050838110156102f1576040517f08c379a000000000000000000000000000000000000000000000000000000000815260040180806020018281038252601b8152602001807f536166654d6174683a206164646974696f6e206f766572666c6f77000000000081525060200191505060405180910390fd5b8091505092915050565b600061033d83836040518060400160405280601e81526020017f536166654d6174683a207375627472616374696f6e206f766572666c6f770000815250610345565b905092915050565b60008383111582906103f2576040517f08c379a00000000000000000000000000000000000000000000000000000000081526004018080602001828103825283818151815260200191508051906020019080838360005b838110156103b757808201518184015260208101905061039c565b50505050905090810190601f1680156103e45780820380516001836020036101000a031916815260200191505b509250505060405180910390fd5b506000838503905080915050939250505056fea265627a7a72315820082584dd8f7faf6db00f484812da44e5a5a77f73c8eafbef9c47f761b9750af664736f6c63430005100032",
  "source": "pragma solidity 0.5.16;\nimport \"./SafeMath.sol\";\n\ncontract Bank {\n    using SafeMath for uint256;\n    event Deposit(address indexed accountOwner, uint256 indexed ammount);\n    event Withdraw(address indexed accountOwner, uint256 indexed ammount);\n\n    mapping (address => uint256) public _ethBalance;\n\n    function _deposit() public payable {\n        _ethBalance[msg.sender].add(msg.value);\n        emit Deposit(msg.sender, msg.value);\n    }\n\n    function _withdraw(uint256 amount) public {\n        _ethBalance[msg.sender].sub(amount);\n        msg.sender.transfer(amount);\n        emit Withdraw(msg.sender, amount);\n    }\n}",
  "sourcePath": "/home/jason/Documents/Github/erc721-assignment/contracts/Bank.sol",
  "compiler": {
    "name": "solc",
    "version": "0.5.16+commit.9c3226ce.Emscripten.clang"
  },
  "schemaVersion": "3.0.21",
  "updatedAt": "2020-01-22T18:34:04.994Z",
  "devdoc": {
    "methods": {}
  },
  "userdoc": {
    "methods": {}
  }
}