{
  "contractName": "Chequing",
  "abi": [
    {
      "inputs": [],
      "payable": false,
      "stateMutability": "nonpayable",
      "type": "constructor"
    },
    {
      "anonymous": false,
      "inputs": [
        {
          "indexed": true,
          "internalType": "address",
          "name": "owner",
          "type": "address"
        },
        {
          "indexed": true,
          "internalType": "address",
          "name": "approved",
          "type": "address"
        },
        {
          "indexed": true,
          "internalType": "uint256",
          "name": "tokenId",
          "type": "uint256"
        }
      ],
      "name": "Approval",
      "type": "event"
    },
    {
      "anonymous": false,
      "inputs": [
        {
          "indexed": true,
          "internalType": "address",
          "name": "owner",
          "type": "address"
        },
        {
          "indexed": true,
          "internalType": "address",
          "name": "operator",
          "type": "address"
        },
        {
          "indexed": false,
          "internalType": "bool",
          "name": "approved",
          "type": "bool"
        }
      ],
      "name": "ApprovalForAll",
      "type": "event"
    },
    {
      "anonymous": false,
      "inputs": [
        {
          "indexed": true,
          "internalType": "address",
          "name": "owner",
          "type": "address"
        },
        {
          "indexed": true,
          "internalType": "uint256",
          "name": "chequeId",
          "type": "uint256"
        }
      ],
      "name": "Mint",
      "type": "event"
    },
    {
      "anonymous": false,
      "inputs": [
        {
          "indexed": true,
          "internalType": "address",
          "name": "from",
          "type": "address"
        },
        {
          "indexed": true,
          "internalType": "address",
          "name": "to",
          "type": "address"
        },
        {
          "indexed": true,
          "internalType": "uint256",
          "name": "tokenId",
          "type": "uint256"
        }
      ],
      "name": "Transfer",
      "type": "event"
    },
    {
      "anonymous": false,
      "inputs": [
        {
          "indexed": true,
          "internalType": "address",
          "name": "owner",
          "type": "address"
        },
        {
          "indexed": true,
          "internalType": "uint256",
          "name": "chequeId",
          "type": "uint256"
        }
      ],
      "name": "burn",
      "type": "event"
    },
    {
      "constant": true,
      "inputs": [
        {
          "internalType": "address",
          "name": "",
          "type": "address"
        }
      ],
      "name": "_chequesOwned",
      "outputs": [
        {
          "internalType": "uint256",
          "name": "",
          "type": "uint256"
        }
      ],
      "payable": false,
      "stateMutability": "view",
      "type": "function"
    },
    {
      "constant": true,
      "inputs": [
        {
          "internalType": "bytes4",
          "name": "interfaceId",
          "type": "bytes4"
        }
      ],
      "name": "supportsInterface",
      "outputs": [
        {
          "internalType": "bool",
          "name": "",
          "type": "bool"
        }
      ],
      "payable": false,
      "stateMutability": "view",
      "type": "function"
    },
    {
      "constant": true,
      "inputs": [
        {
          "internalType": "address",
          "name": "owner",
          "type": "address"
        }
      ],
      "name": "balanceOf",
      "outputs": [
        {
          "internalType": "uint256",
          "name": "",
          "type": "uint256"
        }
      ],
      "payable": false,
      "stateMutability": "view",
      "type": "function"
    },
    {
      "constant": true,
      "inputs": [
        {
          "internalType": "uint256",
          "name": "_chequeId",
          "type": "uint256"
        }
      ],
      "name": "ownerOf",
      "outputs": [
        {
          "internalType": "address",
          "name": "",
          "type": "address"
        }
      ],
      "payable": false,
      "stateMutability": "view",
      "type": "function"
    },
    {
      "constant": false,
      "inputs": [
        {
          "internalType": "address",
          "name": "to",
          "type": "address"
        },
        {
          "internalType": "uint256",
          "name": "chequeId",
          "type": "uint256"
        }
      ],
      "name": "approve",
      "outputs": [],
      "payable": false,
      "stateMutability": "nonpayable",
      "type": "function"
    },
    {
      "constant": true,
      "inputs": [
        {
          "internalType": "uint256",
          "name": "chequeId",
          "type": "uint256"
        }
      ],
      "name": "getApproved",
      "outputs": [
        {
          "internalType": "address",
          "name": "",
          "type": "address"
        }
      ],
      "payable": false,
      "stateMutability": "view",
      "type": "function"
    },
    {
      "constant": false,
      "inputs": [
        {
          "internalType": "address",
          "name": "to",
          "type": "address"
        },
        {
          "internalType": "bool",
          "name": "approved",
          "type": "bool"
        }
      ],
      "name": "setApprovalForAll",
      "outputs": [],
      "payable": false,
      "stateMutability": "nonpayable",
      "type": "function"
    },
    {
      "constant": true,
      "inputs": [
        {
          "internalType": "address",
          "name": "owner",
          "type": "address"
        },
        {
          "internalType": "address",
          "name": "operator",
          "type": "address"
        }
      ],
      "name": "isApprovedForAll",
      "outputs": [
        {
          "internalType": "bool",
          "name": "",
          "type": "bool"
        }
      ],
      "payable": false,
      "stateMutability": "view",
      "type": "function"
    },
    {
      "constant": false,
      "inputs": [
        {
          "internalType": "address",
          "name": "from",
          "type": "address"
        },
        {
          "internalType": "address",
          "name": "to",
          "type": "address"
        },
        {
          "internalType": "uint256",
          "name": "chequeId",
          "type": "uint256"
        },
        {
          "internalType": "bytes",
          "name": "_data",
          "type": "bytes"
        }
      ],
      "name": "safeTransferFrom",
      "outputs": [],
      "payable": false,
      "stateMutability": "nonpayable",
      "type": "function"
    },
    {
      "constant": false,
      "inputs": [
        {
          "internalType": "address",
          "name": "from",
          "type": "address"
        },
        {
          "internalType": "address",
          "name": "to",
          "type": "address"
        },
        {
          "internalType": "uint256",
          "name": "chequeId",
          "type": "uint256"
        }
      ],
      "name": "safeTransferFrom",
      "outputs": [],
      "payable": false,
      "stateMutability": "nonpayable",
      "type": "function"
    },
    {
      "constant": false,
      "inputs": [
        {
          "internalType": "address",
          "name": "from",
          "type": "address"
        },
        {
          "internalType": "address",
          "name": "to",
          "type": "address"
        },
        {
          "internalType": "uint256",
          "name": "chequeId",
          "type": "uint256"
        }
      ],
      "name": "transferFrom",
      "outputs": [],
      "payable": false,
      "stateMutability": "nonpayable",
      "type": "function"
    },
    {
      "constant": true,
      "inputs": [
        {
          "internalType": "uint256",
          "name": "chequeId",
          "type": "uint256"
        }
      ],
      "name": "_getChequeInformation",
      "outputs": [
        {
          "internalType": "address",
          "name": "",
          "type": "address"
        },
        {
          "internalType": "address",
          "name": "",
          "type": "address"
        },
        {
          "internalType": "uint256",
          "name": "",
          "type": "uint256"
        },
        {
          "internalType": "uint256",
          "name": "",
          "type": "uint256"
        },
        {
          "internalType": "uint256",
          "name": "",
          "type": "uint256"
        },
        {
          "internalType": "uint256",
          "name": "",
          "type": "uint256"
        },
        {
          "internalType": "uint256",
          "name": "",
          "type": "uint256"
        }
      ],
      "payable": false,
      "stateMutability": "view",
      "type": "function"
    },
    {
      "constant": false,
      "inputs": [
        {
          "internalType": "address",
          "name": "receiver",
          "type": "address"
        },
        {
          "internalType": "uint256",
          "name": "chequeId",
          "type": "uint256"
        }
      ],
      "name": "_signReceiver",
      "outputs": [],
      "payable": false,
      "stateMutability": "nonpayable",
      "type": "function"
    },
    {
      "constant": false,
      "inputs": [
        {
          "internalType": "uint256",
          "name": "amount",
          "type": "uint256"
        },
        {
          "internalType": "uint256",
          "name": "chequeId",
          "type": "uint256"
        }
      ],
      "name": "_signAmount",
      "outputs": [],
      "payable": false,
      "stateMutability": "nonpayable",
      "type": "function"
    },
    {
      "constant": false,
      "inputs": [
        {
          "internalType": "uint256",
          "name": "amount",
          "type": "uint256"
        },
        {
          "internalType": "address",
          "name": "receiver",
          "type": "address"
        },
        {
          "internalType": "uint256",
          "name": "chequeId",
          "type": "uint256"
        }
      ],
      "name": "_signAmountAndReceiver",
      "outputs": [],
      "payable": false,
      "stateMutability": "nonpayable",
      "type": "function"
    }
  ],
  "bytecode": "0x60806040526001805534801561001457600080fd5b5061002b6301ffc9a760e01b61004660201b60201c565b6100416380ac58cd60e01b61004660201b60201c565b61014e565b63ffffffff60e01b817bffffffffffffffffffffffffffffffffffffffffffffffffffffffff191614156100e2576040517f08c379a000000000000000000000000000000000000000000000000000000000815260040180806020018281038252601c8152602001807f4552433136353a20696e76616c696420696e746572666163652069640000000081525060200191505060405180910390fd5b6001600080837bffffffffffffffffffffffffffffffffffffffffffffffffffffffff19167bffffffffffffffffffffffffffffffffffffffffffffffffffffffff1916815260200190815260200160002060006101000a81548160ff02191690831515021790555050565b612255806200015e6000396000f3fe608060405234801561001057600080fd5b50600436106100f55760003560e01c806370a0823111610097578063b88d4fde11610066578063b88d4fde146104f5578063ca592c51146105fa578063e985e9c514610648578063fbb0759a146106c4576100f5565b806370a08231146103bd5780639ac377ef14610415578063a22cb4651461044d578063aefe91ed1461049d576100f5565b8063095ea7b3116100d3578063095ea7b31461022557806323b872dd1461027357806342842e0e146102e15780636352211e1461034f576100f5565b806301ffc9a7146100fa578063023f18a11461015f578063081812fc146101b7575b600080fd5b6101456004803603602081101561011057600080fd5b8101908080357bffffffffffffffffffffffffffffffffffffffffffffffffffffffff19169060200190929190505050610788565b604051808215151515815260200191505060405180910390f35b6101b56004803603606081101561017557600080fd5b8101908080359060200190929190803573ffffffffffffffffffffffffffffffffffffffff169060200190929190803590602001909291905050506107ef565b005b6101e3600480360360208110156101cd57600080fd5b8101908080359060200190929190505050610afb565b604051808273ffffffffffffffffffffffffffffffffffffffff1673ffffffffffffffffffffffffffffffffffffffff16815260200191505060405180910390f35b6102716004803603604081101561023b57600080fd5b81019080803573ffffffffffffffffffffffffffffffffffffffff16906020019092919080359060200190929190505050610b96565b005b6102df6004803603606081101561028957600080fd5b81019080803573ffffffffffffffffffffffffffffffffffffffff169060200190929190803573ffffffffffffffffffffffffffffffffffffffff16906020019092919080359060200190929190505050610d6f565b005b61034d600480360360608110156102f757600080fd5b81019080803573ffffffffffffffffffffffffffffffffffffffff169060200190929190803573ffffffffffffffffffffffffffffffffffffffff16906020019092919080359060200190929190505050610dde565b005b61037b6004803603602081101561036557600080fd5b8101908080359060200190929190505050610dfe565b604051808273ffffffffffffffffffffffffffffffffffffffff1673ffffffffffffffffffffffffffffffffffffffff16815260200191505060405180910390f35b6103ff600480360360208110156103d357600080fd5b81019080803573ffffffffffffffffffffffffffffffffffffffff169060200190929190505050610ec6565b6040518082815260200191505060405180910390f35b61044b6004803603604081101561042b57600080fd5b810190808035906020019092919080359060200190929190505050610f94565b005b61049b6004803603604081101561046357600080fd5b81019080803573ffffffffffffffffffffffffffffffffffffffff16906020019092919080351515906020019092919050505061109a565b005b6104df600480360360208110156104b357600080fd5b81019080803573ffffffffffffffffffffffffffffffffffffffff16906020019092919050505061123d565b6040518082815260200191505060405180910390f35b6105f86004803603608081101561050b57600080fd5b81019080803573ffffffffffffffffffffffffffffffffffffffff169060200190929190803573ffffffffffffffffffffffffffffffffffffffff169060200190929190803590602001909291908035906020019064010000000081111561057257600080fd5b82018360208201111561058457600080fd5b803590602001918460018302840111640100000000831117156105a657600080fd5b91908080601f016020809104026020016040519081016040528093929190818152602001838380828437600081840152601f19601f820116905080830192505050505050509192919290505050611255565b005b6106466004803603604081101561061057600080fd5b81019080803573ffffffffffffffffffffffffffffffffffffffff169060200190929190803590602001909291905050506112c6565b005b6106aa6004803603604081101561065e57600080fd5b81019080803573ffffffffffffffffffffffffffffffffffffffff169060200190929190803573ffffffffffffffffffffffffffffffffffffffff16906020019092919050505061147e565b604051808215151515815260200191505060405180910390f35b6106f0600480360360208110156106da57600080fd5b8101908080359060200190929190505050611512565b604051808873ffffffffffffffffffffffffffffffffffffffff1673ffffffffffffffffffffffffffffffffffffffff1681526020018773ffffffffffffffffffffffffffffffffffffffff1673ffffffffffffffffffffffffffffffffffffffff16815260200186815260200185815260200184815260200183815260200182815260200197505050505050505060405180910390f35b6000806000837bffffffffffffffffffffffffffffffffffffffffffffffffffffffff19167bffffffffffffffffffffffffffffffffffffffffffffffffffffffff1916815260200190815260200160002060009054906101000a900460ff169050919050565b6000831415610849576040517f08c379a00000000000000000000000000000000000000000000000000000000081526004018080602001828103825260228152602001806120e26022913960400191505060405180910390fd5b600073ffffffffffffffffffffffffffffffffffffffff168273ffffffffffffffffffffffffffffffffffffffff1614156108cf576040517f08c379a00000000000000000000000000000000000000000000000000000000081526004018080602001828103825260258152602001806120356025913960400191505060405180910390fd5b6108d93382611675565b61092e576040517f08c379a0000000000000000000000000000000000000000000000000000000008152600401808060200182810382526036815260200180611fcd6036913960400191505060405180910390fd5b600061093982611769565b905060006007828154811061094a57fe5b906000526020600020906007020160030154146109b2576040517f08c379a00000000000000000000000000000000000000000000000000000000081526004018080602001828103825260238152602001806121cd6023913960400191505060405180910390fd5b600073ffffffffffffffffffffffffffffffffffffffff16600782815481106109d757fe5b906000526020600020906007020160010160009054906101000a900473ffffffffffffffffffffffffffffffffffffffff1673ffffffffffffffffffffffffffffffffffffffff1614610a75576040517f08c379a00000000000000000000000000000000000000000000000000000000081526004018080602001828103825260238152602001806121cd6023913960400191505060405180910390fd5b8260078281548110610a8357fe5b906000526020600020906007020160010160006101000a81548173ffffffffffffffffffffffffffffffffffffffff021916908373ffffffffffffffffffffffffffffffffffffffff1602179055508360078281548110610ae057fe5b90600052602060002090600702016003018190555050505050565b6000610b0682611786565b610b5b576040517f08c379a000000000000000000000000000000000000000000000000000000000815260040180806020018281038252602c815260200180612157602c913960400191505060405180910390fd5b6005600083815260200190815260200160002060009054906101000a900473ffffffffffffffffffffffffffffffffffffffff169050919050565b6000610ba182610dfe565b90508073ffffffffffffffffffffffffffffffffffffffff168373ffffffffffffffffffffffffffffffffffffffff161415610c28576040517f08c379a00000000000000000000000000000000000000000000000000000000081526004018080602001828103825260218152602001806121ac6021913960400191505060405180910390fd5b8073ffffffffffffffffffffffffffffffffffffffff163373ffffffffffffffffffffffffffffffffffffffff161480610c685750610c67813361147e565b5b610cbd576040517f08c379a00000000000000000000000000000000000000000000000000000000081526004018080602001828103825260388152602001806120aa6038913960400191505060405180910390fd5b826005600084815260200190815260200160002060006101000a81548173ffffffffffffffffffffffffffffffffffffffff021916908373ffffffffffffffffffffffffffffffffffffffff160217905550818373ffffffffffffffffffffffffffffffffffffffff168273ffffffffffffffffffffffffffffffffffffffff167f8c5be1e5ebec7d5bd14f71427d1e84f3dd0314c0f7b2291e5b200ac8c7c3b92560405160405180910390a4505050565b610d793382611675565b610dce576040517f08c379a00000000000000000000000000000000000000000000000000000000081526004018080602001828103825260318152602001806121f06031913960400191505060405180910390fd5b610dd98383836117f8565b505050565b610df983838360405180602001604052806000815250611255565b505050565b6000806003600084815260200190815260200160002060009054906101000a900473ffffffffffffffffffffffffffffffffffffffff169050600073ffffffffffffffffffffffffffffffffffffffff168173ffffffffffffffffffffffffffffffffffffffff161415610ebd576040517f08c379a000000000000000000000000000000000000000000000000000000000815260040180806020018281038252602981526020018061212e6029913960400191505060405180910390fd5b80915050919050565b60008073ffffffffffffffffffffffffffffffffffffffff168273ffffffffffffffffffffffffffffffffffffffff161415610f4d576040517f08c379a000000000000000000000000000000000000000000000000000000000815260040180806020018281038252602a815260200180612104602a913960400191505060405180910390fd5b600260008373ffffffffffffffffffffffffffffffffffffffff1673ffffffffffffffffffffffffffffffffffffffff168152602001908152602001600020549050919050565b6000821415610fee576040517f08c379a00000000000000000000000000000000000000000000000000000000081526004018080602001828103825260228152602001806120e26022913960400191505060405180910390fd5b6000610ff982611769565b905060006007828154811061100a57fe5b90600052602060002090600702016003015414611072576040517f08c379a00000000000000000000000000000000000000000000000000000000081526004018080602001828103825260238152602001806121cd6023913960400191505060405180910390fd5b826007828154811061108057fe5b906000526020600020906007020160030181905550505050565b3373ffffffffffffffffffffffffffffffffffffffff168273ffffffffffffffffffffffffffffffffffffffff16141561113c576040517f08c379a00000000000000000000000000000000000000000000000000000000081526004018080602001828103825260198152602001807f4552433732313a20617070726f766520746f2063616c6c65720000000000000081525060200191505060405180910390fd5b80600660003373ffffffffffffffffffffffffffffffffffffffff1673ffffffffffffffffffffffffffffffffffffffff16815260200190815260200160002060008473ffffffffffffffffffffffffffffffffffffffff1673ffffffffffffffffffffffffffffffffffffffff16815260200190815260200160002060006101000a81548160ff0219169083151502179055508173ffffffffffffffffffffffffffffffffffffffff163373ffffffffffffffffffffffffffffffffffffffff167f17307eab39ab6107e8899845ad3d59bd9653f200f220920489ca2b5937696c3183604051808215151515815260200191505060405180910390a35050565b60026020528060005260406000206000915090505481565b61125f3383611675565b6112b4576040517f08c379a00000000000000000000000000000000000000000000000000000000081526004018080602001828103825260318152602001806121f06031913960400191505060405180910390fd5b6112c084848484611a6d565b50505050565b600073ffffffffffffffffffffffffffffffffffffffff168273ffffffffffffffffffffffffffffffffffffffff16141561134c576040517f08c379a00000000000000000000000000000000000000000000000000000000081526004018080602001828103825260258152602001806120356025913960400191505060405180910390fd5b600061135782611769565b9050600073ffffffffffffffffffffffffffffffffffffffff166007828154811061137e57fe5b906000526020600020906007020160010160009054906101000a900473ffffffffffffffffffffffffffffffffffffffff1673ffffffffffffffffffffffffffffffffffffffff161461141c576040517f08c379a00000000000000000000000000000000000000000000000000000000081526004018080602001828103825260238152602001806121cd6023913960400191505060405180910390fd5b826007828154811061142a57fe5b906000526020600020906007020160010160006101000a81548173ffffffffffffffffffffffffffffffffffffffff021916908373ffffffffffffffffffffffffffffffffffffffff160217905550505050565b6000600660008473ffffffffffffffffffffffffffffffffffffffff1673ffffffffffffffffffffffffffffffffffffffff16815260200190815260200160002060008373ffffffffffffffffffffffffffffffffffffffff1673ffffffffffffffffffffffffffffffffffffffff16815260200190815260200160002060009054906101000a900460ff16905092915050565b60008060008060008060008061152789611769565b9050611531611f63565b6007828154811061153e57fe5b90600052602060002090600702016040518060e00160405290816000820160009054906101000a900473ffffffffffffffffffffffffffffffffffffffff1673ffffffffffffffffffffffffffffffffffffffff1673ffffffffffffffffffffffffffffffffffffffff1681526020016001820160009054906101000a900473ffffffffffffffffffffffffffffffffffffffff1673ffffffffffffffffffffffffffffffffffffffff1673ffffffffffffffffffffffffffffffffffffffff168152602001600282015481526020016003820154815260200160048201548152602001600582015481526020016006820154815250509050806000015181602001518260400151836060015184608001518560a001518660c0015198509850985098509850985098505050919395979092949650565b600061168082611786565b6116d5576040517f08c379a000000000000000000000000000000000000000000000000000000000815260040180806020018281038252602c81526020018061207e602c913960400191505060405180910390fd5b60006116e083610dfe565b90508073ffffffffffffffffffffffffffffffffffffffff168473ffffffffffffffffffffffffffffffffffffffff16148061174f57508373ffffffffffffffffffffffffffffffffffffffff1661173784610afb565b73ffffffffffffffffffffffffffffffffffffffff16145b80611760575061175f818561147e565b5b91505092915050565b600060046000838152602001908152602001600020549050919050565b6000806003600084815260200190815260200160002060009054906101000a900473ffffffffffffffffffffffffffffffffffffffff169050600073ffffffffffffffffffffffffffffffffffffffff168173ffffffffffffffffffffffffffffffffffffffff161415915050919050565b8273ffffffffffffffffffffffffffffffffffffffff1661181882610dfe565b73ffffffffffffffffffffffffffffffffffffffff1614611884576040517f08c379a00000000000000000000000000000000000000000000000000000000081526004018080602001828103825260298152602001806121836029913960400191505060405180910390fd5b600073ffffffffffffffffffffffffffffffffffffffff168273ffffffffffffffffffffffffffffffffffffffff16141561190a576040517f08c379a000000000000000000000000000000000000000000000000000000000815260040180806020018281038252602481526020018061205a6024913960400191505060405180910390fd5b61191381611adf565b6119666001600260008673ffffffffffffffffffffffffffffffffffffffff1673ffffffffffffffffffffffffffffffffffffffff16815260200190815260200160002054611b9d90919063ffffffff16565b506119ba6001600260008573ffffffffffffffffffffffffffffffffffffffff1673ffffffffffffffffffffffffffffffffffffffff16815260200190815260200160002054611c2590919063ffffffff16565b50816003600083815260200190815260200160002060006101000a81548173ffffffffffffffffffffffffffffffffffffffff021916908373ffffffffffffffffffffffffffffffffffffffff160217905550808273ffffffffffffffffffffffffffffffffffffffff168473ffffffffffffffffffffffffffffffffffffffff167fddf252ad1be2c89b69c2b068fc378daa952ba7f163c4a11628f55a4df523b3ef60405160405180910390a4505050565b611a788484846117f8565b611a8484848484611c6f565b611ad9576040517f08c379a00000000000000000000000000000000000000000000000000000000081526004018080602001828103825260328152602001806120036032913960400191505060405180910390fd5b50505050565b600073ffffffffffffffffffffffffffffffffffffffff166005600083815260200190815260200160002060009054906101000a900473ffffffffffffffffffffffffffffffffffffffff1673ffffffffffffffffffffffffffffffffffffffff1614611b9a5760006005600083815260200190815260200160002060006101000a81548173ffffffffffffffffffffffffffffffffffffffff021916908373ffffffffffffffffffffffffffffffffffffffff1602179055505b50565b600080828401905083811015611c1b576040517f08c379a000000000000000000000000000000000000000000000000000000000815260040180806020018281038252601b8152602001807f536166654d6174683a206164646974696f6e206f766572666c6f77000000000081525060200191505060405180910390fd5b8091505092915050565b6000611c6783836040518060400160405280601e81526020017f536166654d6174683a207375627472616374696f6e206f766572666c6f770000815250611e58565b905092915050565b6000611c908473ffffffffffffffffffffffffffffffffffffffff16611f18565b611c9d5760019050611e50565b60008473ffffffffffffffffffffffffffffffffffffffff1663150b7a02338887876040518563ffffffff1660e01b8152600401808573ffffffffffffffffffffffffffffffffffffffff1673ffffffffffffffffffffffffffffffffffffffff1681526020018473ffffffffffffffffffffffffffffffffffffffff1673ffffffffffffffffffffffffffffffffffffffff16815260200183815260200180602001828103825283818151815260200191508051906020019080838360005b83811015611d78578082015181840152602081019050611d5d565b50505050905090810190601f168015611da55780820380516001836020036101000a031916815260200191505b5095505050505050602060405180830381600087803b158015611dc757600080fd5b505af1158015611ddb573d6000803e3d6000fd5b505050506040513d6020811015611df157600080fd5b8101908080519060200190929190505050905063150b7a0260e01b7bffffffffffffffffffffffffffffffffffffffffffffffffffffffff1916817bffffffffffffffffffffffffffffffffffffffffffffffffffffffff1916149150505b949350505050565b6000838311158290611f05576040517f08c379a00000000000000000000000000000000000000000000000000000000081526004018080602001828103825283818151815260200191508051906020019080838360005b83811015611eca578082015181840152602081019050611eaf565b50505050905090810190601f168015611ef75780820380516001836020036101000a031916815260200191505b509250505060405180910390fd5b5060008385039050809150509392505050565b60008060007fc5d2460186f7233c927e7db2dcc703c0e500b653ca82273b7bfad8045d85a47060001b9050833f9150808214158015611f5a57506000801b8214155b92505050919050565b6040518060e00160405280600073ffffffffffffffffffffffffffffffffffffffff168152602001600073ffffffffffffffffffffffffffffffffffffffff1681526020016000815260200160008152602001600081526020016000815260200160008152509056fe43616e6e6f74207369676e206120636865717565207468617420796f7520646f206e6f74206f776e206f7220617070726f7665206f664552433732313a207472616e7366657220746f206e6f6e20455243373231526563656976657220696d706c656d656e74657243616e6e6f74207369676e20612063686571756520776974682061646472657373203078304552433732313a207472616e7366657220746f20746865207a65726f20616464726573734552433732313a206f70657261746f7220717565727920666f72206e6f6e6578697374656e7420746f6b656e4552433732313a20617070726f76652063616c6c6572206973206e6f74206f776e6572206e6f7220617070726f76656420666f7220616c6c43616e6e6f74207369676e206120636865717565207769746820616d6f756e7420304552433732313a2062616c616e636520717565727920666f7220746865207a65726f20616464726573734552433732313a206f776e657220717565727920666f72206e6f6e6578697374656e7420746f6b656e4552433732313a20617070726f76656420717565727920666f72206e6f6e6578697374656e7420746f6b656e4552433732313a207472616e73666572206f6620746f6b656e2074686174206973206e6f74206f776e4552433732313a20617070726f76616c20746f2063757272656e74206f776e657241207369676e6564206368657175652063616e6e6f742062652072652d7369676e65644552433732313a207472616e736665722063616c6c6572206973206e6f74206f776e6572206e6f7220617070726f766564a265627a7a7231582098d8f1cdb18e0a9b458729df263231dd755cbc2fc28b46042e07d3d437f609e564736f6c63430005100032",
  "source": "pragma solidity 0.5.16;\nimport \"./SafeMath.sol\";\nimport \"./Address.sol\";\nimport \"./ERC165.sol\";\nimport \"./IERC721.sol\";\nimport \"./IERC721Receiver.sol\";\n\ncontract Chequing is ERC165, IERC721 {\n    using SafeMath for uint256;\n    using Address for address;\n\n    event Mint(address indexed owner, uint256 indexed chequeId);\n    event burn(address indexed owner, uint256 indexed chequeId);\n\n    struct Cheque {\n        address accountOwner;\n        address receiver;\n        uint256 id;\n        uint256 amount;\n        uint256 issueDate;\n        uint256 usableFromDate;\n        uint256 expiraryDate;\n    }\n\n    uint256 private _generalChequeIdNonce = 1;\n\n    mapping (address => uint256) public _chequesOwned;\n    mapping (uint256 => address) private _chequesToAddress;\n    mapping (uint256 => uint256) private _chequeIdToIndex;\n    mapping (uint256 => address) private _chequeApprovals;\n    mapping (address => mapping (address => bool)) private _operatorApprovals;\n\n    Cheque[] _cheques;\n\n    bytes4 private constant _ERC721_RECEIVED = 0x150b7a02;\n    bytes4 private constant _INTERFACE_ID_ERC721 = 0x80ac58cd;\n\n    constructor () public {\n        // register the supported interfaces to conform to ERC721 via ERC165\n        _registerInterface(_INTERFACE_ID_ERC721);\n    }\n\n    function balanceOf(address owner) public view returns (uint256){\n        require(owner != address(0), \"ERC721: balance query for the zero address\");\n        return _chequesOwned[owner];\n    }\n\n    function ownerOf(uint256 _chequeId) public view returns (address) {\n        address owner = _chequesToAddress[_chequeId];\n        require(owner != address(0), \"ERC721: owner query for nonexistent token\");\n\n        return owner;\n    }\n\n    function approve(address to, uint256 chequeId) public {\n        address owner = ownerOf(chequeId);\n        require(to != owner, \"ERC721: approval to current owner\");\n\n        require(msg.sender == owner || isApprovedForAll(owner, msg.sender),\n            \"ERC721: approve caller is not owner nor approved for all\"\n        );\n\n        _chequeApprovals[chequeId] = to;\n        emit Approval(owner, to, chequeId);\n    }\n\n    function getApproved(uint256 chequeId) public view returns (address) {\n        require(_exists(chequeId), \"ERC721: approved query for nonexistent token\");\n\n        return _chequeApprovals[chequeId];\n    }\n\n    function setApprovalForAll(address to, bool approved) public {\n        require(to != msg.sender, \"ERC721: approve to caller\");\n\n        _operatorApprovals[msg.sender][to] = approved;\n        emit ApprovalForAll(msg.sender, to, approved);\n    }\n\n    function isApprovedForAll(address owner, address operator) public view returns (bool) {\n        return _operatorApprovals[owner][operator];\n    }\n\n    function _isApprovedOrOwner(address spender, uint256 chequeId) internal view returns (bool) {\n        require(_exists(chequeId), \"ERC721: operator query for nonexistent token\");\n        address owner = ownerOf(chequeId);\n        return (spender == owner || getApproved(chequeId) == spender || isApprovedForAll(owner, spender));\n    }\n\n    function safeTransferFrom(address from, address to, uint256 chequeId) public {\n        safeTransferFrom(from, to, chequeId, \"\");\n    }\n\n\n    function safeTransferFrom(address from, address to, uint256 chequeId, bytes memory _data) public {\n        require(_isApprovedOrOwner(msg.sender, chequeId), \"ERC721: transfer caller is not owner nor approved\");\n        _safeTransferFrom(from, to, chequeId, _data);\n    }\n\n    function _safeTransferFrom(address from, address to, uint256 chequeId, bytes memory _data) internal {\n        _transferFrom(from, to, chequeId);\n        require(_checkOnERC721Received(from, to, chequeId, _data), \"ERC721: transfer to non ERC721Receiver implementer\");\n    }\n\n    function transferFrom(address from, address to, uint256 chequeId) public {\n        //solhint-disable-next-line max-line-length\n        require(_isApprovedOrOwner(msg.sender, chequeId), \"ERC721: transfer caller is not owner nor approved\");\n\n        _transferFrom(from, to, chequeId);\n    }\n\n    function _transferFrom(address from, address to, uint256 chequeId) internal {\n        require(ownerOf(chequeId) == from, \"ERC721: transfer of token that is not own\");\n        require(to != address(0), \"ERC721: transfer to the zero address\");\n\n        _clearApproval(chequeId);\n\n        _chequesOwned[from].add(1);\n        _chequesOwned[to].sub(1);\n\n        _chequesToAddress[chequeId] = to;\n\n        emit Transfer(from, to, chequeId);\n    }\n\n    function _getChequeInformation(uint256 chequeId) public view returns(address, address, uint256, uint256, uint256, uint256, uint256) {\n        uint256 chequeIndex = _getChequeIndex(chequeId);\n        Cheque memory cheque = _cheques[chequeIndex];\n        return (cheque.accountOwner, cheque.receiver, cheque.id, cheque.amount, cheque.issueDate, cheque.usableFromDate, cheque.expiraryDate);\n    }\n\n    function _getChequeIndex(uint256 chequeId) internal view returns (uint256) {\n        return _chequeIdToIndex[chequeId];\n    }\n\n    function _signReceiver(address receiver, uint256 chequeId) public {\n        require(receiver != address(0), \"Cannot sign a cheque with address 0x0\");\n\n        uint256 chequeIndex = _getChequeIndex(chequeId);\n        require(_cheques[chequeIndex].receiver == address(0), \"A signed cheque cannot be re-signed\");\n        _cheques[chequeIndex].receiver = receiver;\n    }\n\n    function _signAmount(uint256 amount, uint256 chequeId) public {\n        require(amount != 0, \"Cannot sign a cheque with amount 0\");\n\n        uint256 chequeIndex = _getChequeIndex(chequeId);\n        require(_cheques[chequeIndex].amount == 0, \"A signed cheque cannot be re-signed\");\n        _cheques[chequeIndex].amount = amount;\n    }\n\n    function _signAmountAndReceiver(uint256 amount, address receiver, uint256 chequeId) public {\n        require(amount != 0, \"Cannot sign a cheque with amount 0\");\n        require(receiver != address(0), \"Cannot sign a cheque with address 0x0\");\n        require(_isApprovedOrOwner(msg.sender, chequeId), 'Cannot sign a cheque that you do not own or approve of');\n        uint256 chequeIndex = _getChequeIndex(chequeId);\n        require(_cheques[chequeIndex].amount == 0, \"A signed cheque cannot be re-signed\");\n        require(_cheques[chequeIndex].receiver == address(0), \"A signed cheque cannot be re-signed\");\n        _cheques[chequeIndex].receiver = receiver;\n        _cheques[chequeIndex].amount = amount;\n    }\n\n    function _safeMint(address receiver, uint256 amount, uint256 usableFromDate, uint256 expiraryDate, bytes memory _data) internal {\n        uint256 chequeId = _mint(receiver, amount, usableFromDate, expiraryDate);\n        require(_checkOnERC721Received(address(0), msg.sender, chequeId, _data), \"ERC721: transfer to non ERC721Receiver implementer\");\n    }\n\n    function _mint(address receiver, uint256 amount, uint256 usableFromDate, uint256 expiraryDate) internal returns (uint256) {\n        uint256 issueDate = block.timestamp;\n        require(msg.sender != address(0), \"ERC721: mint to the zero address\");\n        require(issueDate > expiraryDate || expiraryDate == 0, \"Cannot create an expired cheque. To create a cheque that doesn't expire, use 0 as [uint256 expiraryDate]\");\n        _generalChequeIdNonce = _generalChequeIdNonce.add(1);\n        Cheque memory newCheque = Cheque(msg.sender, receiver, _generalChequeIdNonce, amount, issueDate, usableFromDate, expiraryDate);\n        _cheques.push(newCheque);\n        _chequesToAddress[_generalChequeIdNonce] = msg.sender;\n        emit Mint(msg.sender, _generalChequeIdNonce);\n\n        return _generalChequeIdNonce;\n    }\n\n    function _burn(uint256 chequeId) internal returns (bool) {\n        require(_isApprovedOrOwner(msg.sender, chequeId), \"ERC721: burn of token that is not own\");\n\n        _clearApproval(chequeId);\n\n        _chequesOwned[ownerOf(chequeId)].sub(1);\n        _chequesToAddress[chequeId] = address(0);\n\n        emit burn(msg.sender, chequeId);\n        return true;\n    }\n\n    function _exists(uint256 chequeId) internal view returns (bool) {\n        address owner = _chequesToAddress[chequeId];\n        return owner != address(0);\n    }\n\n    function _checkOnERC721Received(address from, address to, uint256 tokenId, bytes memory _data)\n        internal returns (bool)\n    {\n        if (!to.isContract()) {\n            return true;\n        }\n\n        bytes4 retval = IERC721Receiver(to).onERC721Received(msg.sender, from, tokenId, _data);\n        return (retval == _ERC721_RECEIVED);\n    }\n\n    function _clearApproval(uint256 tokenId) private {\n        if (_chequeApprovals[tokenId] != address(0)) {\n            _chequeApprovals[tokenId] = address(0);\n        }\n    }\n\n}",
  "sourcePath": "/home/jason/Documents/Github/erc721-assignment/contracts/Chequing.sol",
  "compiler": {
    "name": "solc",
    "version": "0.5.16+commit.9c3226ce.Emscripten.clang"
  },
  "schemaVersion": "3.0.21",
  "updatedAt": "2020-01-25T17:45:15.349Z",
  "devdoc": {
    "methods": {
      "supportsInterface(bytes4)": {
        "details": "See {IERC165-supportsInterface}.     * Time complexity O(1), guaranteed to always use less than 30 000 gas."
      }
    }
  },
  "userdoc": {
    "methods": {}
  }
}